{
  "_format": "hh-sol-artifact-1",
  "contractName": "LookUpContract",
  "sourceName": "contracts/LookUpContract.sol",
  "abi": [
    {
      "anonymous": false,
      "inputs": [
        {
          "indexed": true,
          "internalType": "address",
          "name": "donor",
          "type": "address"
        },
        {
          "indexed": false,
          "internalType": "uint256",
          "name": "amount",
          "type": "uint256"
        }
      ],
      "name": "DonationReceived",
      "type": "event"
    },
    {
      "anonymous": false,
      "inputs": [
        {
          "indexed": true,
          "internalType": "uint256",
          "name": "id",
          "type": "uint256"
        },
        {
          "indexed": true,
          "internalType": "address",
          "name": "owner",
          "type": "address"
        },
        {
          "indexed": true,
          "internalType": "string",
          "name": "token",
          "type": "string"
        }
      ],
      "name": "ERC20TokenListed",
      "type": "event"
    },
    {
      "inputs": [],
      "name": "_donationIndex",
      "outputs": [
        {
          "internalType": "uint256",
          "name": "",
          "type": "uint256"
        }
      ],
      "stateMutability": "view",
      "type": "function"
    },
    {
      "inputs": [],
      "name": "_tokenIndex",
      "outputs": [
        {
          "internalType": "uint256",
          "name": "",
          "type": "uint256"
        }
      ],
      "stateMutability": "view",
      "type": "function"
    },
    {
      "inputs": [
        {
          "internalType": "address",
          "name": "_owner",
          "type": "address"
        },
        {
          "internalType": "string",
          "name": "_tokenSupply",
          "type": "string"
        },
        {
          "internalType": "string",
          "name": "_tokenName",
          "type": "string"
        },
        {
          "internalType": "string",
          "name": "_tokenSymbol",
          "type": "string"
        },
        {
          "internalType": "string",
          "name": "_tokenAddress",
          "type": "string"
        },
        {
          "internalType": "string",
          "name": "_tokenTransactionHash",
          "type": "string"
        },
        {
          "internalType": "string",
          "name": "_tokenCreatedData",
          "type": "string"
        }
      ],
      "name": "createERC20Token",
      "outputs": [
        {
          "internalType": "uint256",
          "name": "",
          "type": "uint256"
        },
        {
          "internalType": "address",
          "name": "",
          "type": "address"
        },
        {
          "internalType": "string",
          "name": "",
          "type": "string"
        },
        {
          "internalType": "string",
          "name": "",
          "type": "string"
        },
        {
          "internalType": "string",
          "name": "",
          "type": "string"
        },
        {
          "internalType": "string",
          "name": "",
          "type": "string"
        }
      ],
      "stateMutability": "payable",
      "type": "function"
    },
    {
      "inputs": [],
      "name": "donate",
      "outputs": [],
      "stateMutability": "payable",
      "type": "function"
    },
    {
      "inputs": [],
      "name": "getAllDonation",
      "outputs": [
        {
          "components": [
            {
              "internalType": "uint256",
              "name": "donationID",
              "type": "uint256"
            },
            {
              "internalType": "address",
              "name": "donor",
              "type": "address"
            },
            {
              "internalType": "uint256",
              "name": "fund",
              "type": "uint256"
            }
          ],
          "internalType": "struct LookUpContract.Donation[]",
          "name": "",
          "type": "tuple[]"
        }
      ],
      "stateMutability": "view",
      "type": "function"
    },
    {
      "inputs": [],
      "name": "getAllERC20TokenListed",
      "outputs": [
        {
          "components": [
            {
              "internalType": "uint256",
              "name": "tokenID",
              "type": "uint256"
            },
            {
              "internalType": "address",
              "name": "owner",
              "type": "address"
            },
            {
              "internalType": "string",
              "name": "tokenSupply",
              "type": "string"
            },
            {
              "internalType": "string",
              "name": "tokenName",
              "type": "string"
            },
            {
              "internalType": "string",
              "name": "tokenSymbol",
              "type": "string"
            },
            {
              "internalType": "string",
              "name": "tokenAddress",
              "type": "string"
            },
            {
              "internalType": "string",
              "name": "tokenTransactionHash",
              "type": "string"
            },
            {
              "internalType": "string",
              "name": "tokenCreatedDate",
              "type": "string"
            }
          ],
          "internalType": "struct LookUpContract.ERC20Token[]",
          "name": "",
          "type": "tuple[]"
        }
      ],
      "stateMutability": "view",
      "type": "function"
    },
    {
      "inputs": [],
      "name": "getContractBalance",
      "outputs": [
        {
          "internalType": "uint256",
          "name": "",
          "type": "uint256"
        }
      ],
      "stateMutability": "view",
      "type": "function"
    },
    {
      "inputs": [
        {
          "internalType": "uint256",
          "name": "_tokenID",
          "type": "uint256"
        }
      ],
      "name": "getERC20Token",
      "outputs": [
        {
          "internalType": "uint256",
          "name": "",
          "type": "uint256"
        },
        {
          "internalType": "address",
          "name": "",
          "type": "address"
        },
        {
          "internalType": "string",
          "name": "",
          "type": "string"
        },
        {
          "internalType": "string",
          "name": "",
          "type": "string"
        },
        {
          "internalType": "string",
          "name": "",
          "type": "string"
        },
        {
          "internalType": "string",
          "name": "",
          "type": "string"
        },
        {
          "internalType": "string",
          "name": "",
          "type": "string"
        },
        {
          "internalType": "string",
          "name": "",
          "type": "string"
        }
      ],
      "stateMutability": "view",
      "type": "function"
    },
    {
      "inputs": [],
      "name": "getERC20TokenListingPrice",
      "outputs": [
        {
          "internalType": "uint256",
          "name": "",
          "type": "uint256"
        }
      ],
      "stateMutability": "view",
      "type": "function"
    },
    {
      "inputs": [
        {
          "internalType": "address",
          "name": "_user",
          "type": "address"
        }
      ],
      "name": "getUserERC20Tokens",
      "outputs": [
        {
          "components": [
            {
              "internalType": "uint256",
              "name": "tokenID",
              "type": "uint256"
            },
            {
              "internalType": "address",
              "name": "owner",
              "type": "address"
            },
            {
              "internalType": "string",
              "name": "tokenSupply",
              "type": "string"
            },
            {
              "internalType": "string",
              "name": "tokenName",
              "type": "string"
            },
            {
              "internalType": "string",
              "name": "tokenSymbol",
              "type": "string"
            },
            {
              "internalType": "string",
              "name": "tokenAddress",
              "type": "string"
            },
            {
              "internalType": "string",
              "name": "tokenTransactionHash",
              "type": "string"
            },
            {
              "internalType": "string",
              "name": "tokenCreatedDate",
              "type": "string"
            }
          ],
          "internalType": "struct LookUpContract.ERC20Token[]",
          "name": "",
          "type": "tuple[]"
        }
      ],
      "stateMutability": "view",
      "type": "function"
    },
    {
      "inputs": [],
      "name": "listingPrice",
      "outputs": [
        {
          "internalType": "uint256",
          "name": "",
          "type": "uint256"
        }
      ],
      "stateMutability": "view",
      "type": "function"
    },
    {
      "inputs": [
        {
          "internalType": "uint256",
          "name": "_listingPrice",
          "type": "uint256"
        },
        {
          "internalType": "address",
          "name": "owner",
          "type": "address"
        }
      ],
      "name": "updateListingPrice",
      "outputs": [],
      "stateMutability": "payable",
      "type": "function"
    },
    {
      "inputs": [],
      "name": "withdraw",
      "outputs": [],
      "stateMutability": "nonpayable",
      "type": "function"
    }
  ],
  "bytecode": "0x608060405273b309098bcb51e5c687a16fa41bd6055f47c9ebb06000806101000a81548173ffffffffffffffffffffffffffffffffffffffff021916908373ffffffffffffffffffffffffffffffffffffffff1602179055506658d15e1762800060015534801561006f57600080fd5b5061275a8061007f6000396000f3fe6080604052600436106100c25760003560e01c806380cad5a61161007f578063a581889a11610059578063a581889a14610252578063b5c6e21f14610287578063c78f19f9146102b2578063ed88c68e146102dd576100c2565b806380cad5a6146101ce5780639463c838146101ea578063a218547714610215576100c2565b80630fbf0e31146100c75780631ec4a8b51461010b5780633ccfd60b1461013657806352e9a1a01461014d5780635b7af131146101785780636f9fb98a146101a3575b600080fd5b3480156100d357600080fd5b506100ee60048036038101906100e99190611cf3565b6102e7565b604051610102989796959493929190612356565b60405180910390f35b34801561011757600080fd5b50610120610726565b60405161012d91906122be565b60405180910390f35b34801561014257600080fd5b5061014b61072c565b005b34801561015957600080fd5b5061016261086c565b60405161016f91906121fa565b60405180910390f35b34801561018457600080fd5b5061018d610a0f565b60405161019a919061221c565b60405180910390f35b3480156101af57600080fd5b506101b8610f15565b6040516101c591906122be565b60405180910390f35b6101e860048036038101906101e39190611d1c565b610fb2565b005b3480156101f657600080fd5b506101ff6110d9565b60405161020c91906122be565b60405180910390f35b34801561022157600080fd5b5061023c60048036038101906102379190611b9c565b6110e3565b604051610249919061221c565b60405180910390f35b61026c60048036038101906102679190611bc5565b61170a565b60405161027e969594939291906122d9565b60405180910390f35b34801561029357600080fd5b5061029c6118a9565b6040516102a991906122be565b60405180910390f35b3480156102be57600080fd5b506102c76118af565b6040516102d491906122be565b60405180910390f35b6102e56118b5565b005b6000806060806060806060806000600260008b815260200190815260200160002060405180610100016040529081600082015481526020016001820160009054906101000a900473ffffffffffffffffffffffffffffffffffffffff1673ffffffffffffffffffffffffffffffffffffffff1673ffffffffffffffffffffffffffffffffffffffff168152602001600282018054610384906125dd565b80601f01602080910402602001604051908101604052809291908181526020018280546103b0906125dd565b80156103fd5780601f106103d2576101008083540402835291602001916103fd565b820191906000526020600020905b8154815290600101906020018083116103e057829003601f168201915b50505050508152602001600382018054610416906125dd565b80601f0160208091040260200160405190810160405280929190818152602001828054610442906125dd565b801561048f5780601f106104645761010080835404028352916020019161048f565b820191906000526020600020905b81548152906001019060200180831161047257829003601f168201915b505050505081526020016004820180546104a8906125dd565b80601f01602080910402602001604051908101604052809291908181526020018280546104d4906125dd565b80156105215780601f106104f657610100808354040283529160200191610521565b820191906000526020600020905b81548152906001019060200180831161050457829003601f168201915b5050505050815260200160058201805461053a906125dd565b80601f0160208091040260200160405190810160405280929190818152602001828054610566906125dd565b80156105b35780601f10610588576101008083540402835291602001916105b3565b820191906000526020600020905b81548152906001019060200180831161059657829003601f168201915b505050505081526020016006820180546105cc906125dd565b80601f01602080910402602001604051908101604052809291908181526020018280546105f8906125dd565b80156106455780601f1061061a57610100808354040283529160200191610645565b820191906000526020600020905b81548152906001019060200180831161062857829003601f168201915b5050505050815260200160078201805461065e906125dd565b80601f016020809104026020016040519081016040528092919081815260200182805461068a906125dd565b80156106d75780601f106106ac576101008083540402835291602001916106d7565b820191906000526020600020905b8154815290600101906020018083116106ba57829003601f168201915b5050505050815250509050806000015181602001518260400151836060015184608001518560a001518660c001518760e001519850985098509850985098509850985050919395975091939597565b60055481565b60008054906101000a900473ffffffffffffffffffffffffffffffffffffffff1673ffffffffffffffffffffffffffffffffffffffff163373ffffffffffffffffffffffffffffffffffffffff16146107ba576040517f08c379a00000000000000000000000000000000000000000000000000000000081526004016107b19061227e565b60405180910390fd5b600047905060008111610802576040517f08c379a00000000000000000000000000000000000000000000000000000000081526004016107f99061229e565b60405180910390fd5b60008054906101000a900473ffffffffffffffffffffffffffffffffffffffff1673ffffffffffffffffffffffffffffffffffffffff166108fc829081150290604051600060405180830381858888f19350505050158015610868573d6000803e3d6000fd5b5050565b6060600060055490506000808267ffffffffffffffff8111156108b8577f4e487b7100000000000000000000000000000000000000000000000000000000600052604160045260246000fd5b6040519080825280602002602001820160405280156108f157816020015b6108de6119d5565b8152602001906001900390816108d65790505b50905060005b83811015610a0557600060018261090e9190612509565b9050600060036000838152602001908152602001600020905080604051806060016040529081600082015481526020016001820160009054906101000a900473ffffffffffffffffffffffffffffffffffffffff1673ffffffffffffffffffffffffffffffffffffffff1673ffffffffffffffffffffffffffffffffffffffff1681526020016002820154815250508486815181106109d6577f4e487b7100000000000000000000000000000000000000000000000000000000600052603260045260246000fd5b60200260200101819052506001856109ee9190612509565b9450505080806109fd9061260f565b9150506108f7565b5080935050505090565b6060600060045490506000808267ffffffffffffffff811115610a5b577f4e487b7100000000000000000000000000000000000000000000000000000000600052604160045260246000fd5b604051908082528060200260200182016040528015610a9457816020015b610a81611a0c565b815260200190600190039081610a795790505b50905060005b83811015610f0b576000600182610ab19190612509565b905060006002600083815260200190815260200160002090508060405180610100016040529081600082015481526020016001820160009054906101000a900473ffffffffffffffffffffffffffffffffffffffff1673ffffffffffffffffffffffffffffffffffffffff1673ffffffffffffffffffffffffffffffffffffffff168152602001600282018054610b47906125dd565b80601f0160208091040260200160405190810160405280929190818152602001828054610b73906125dd565b8015610bc05780601f10610b9557610100808354040283529160200191610bc0565b820191906000526020600020905b815481529060010190602001808311610ba357829003601f168201915b50505050508152602001600382018054610bd9906125dd565b80601f0160208091040260200160405190810160405280929190818152602001828054610c05906125dd565b8015610c525780601f10610c2757610100808354040283529160200191610c52565b820191906000526020600020905b815481529060010190602001808311610c3557829003601f168201915b50505050508152602001600482018054610c6b906125dd565b80601f0160208091040260200160405190810160405280929190818152602001828054610c97906125dd565b8015610ce45780601f10610cb957610100808354040283529160200191610ce4565b820191906000526020600020905b815481529060010190602001808311610cc757829003601f168201915b50505050508152602001600582018054610cfd906125dd565b80601f0160208091040260200160405190810160405280929190818152602001828054610d29906125dd565b8015610d765780601f10610d4b57610100808354040283529160200191610d76565b820191906000526020600020905b815481529060010190602001808311610d5957829003601f168201915b50505050508152602001600682018054610d8f906125dd565b80601f0160208091040260200160405190810160405280929190818152602001828054610dbb906125dd565b8015610e085780601f10610ddd57610100808354040283529160200191610e08565b820191906000526020600020905b815481529060010190602001808311610deb57829003601f168201915b50505050508152602001600782018054610e21906125dd565b80601f0160208091040260200160405190810160405280929190818152602001828054610e4d906125dd565b8015610e9a5780601f10610e6f57610100808354040283529160200191610e9a565b820191906000526020600020905b815481529060010190602001808311610e7d57829003601f168201915b505050505081525050848681518110610edc577f4e487b7100000000000000000000000000000000000000000000000000000000600052603260045260246000fd5b6020026020010181905250600185610ef49190612509565b945050508080610f039061260f565b915050610a9a565b5080935050505090565b60008060009054906101000a900473ffffffffffffffffffffffffffffffffffffffff1673ffffffffffffffffffffffffffffffffffffffff163373ffffffffffffffffffffffffffffffffffffffff1614610fa6576040517f08c379a0000000000000000000000000000000000000000000000000000000008152600401610f9d9061227e565b60405180910390fd5b60004790508091505090565b60008054906101000a900473ffffffffffffffffffffffffffffffffffffffff1673ffffffffffffffffffffffffffffffffffffffff163373ffffffffffffffffffffffffffffffffffffffff1614611040576040517f08c379a00000000000000000000000000000000000000000000000000000000081526004016110379061227e565b60405180910390fd5b8073ffffffffffffffffffffffffffffffffffffffff1660008054906101000a900473ffffffffffffffffffffffffffffffffffffffff1673ffffffffffffffffffffffffffffffffffffffff16146110ce576040517f08c379a00000000000000000000000000000000000000000000000000000000081526004016110c59061223e565b60405180910390fd5b816001819055505050565b6000600154905090565b60606000600454905060008060005b83811015611193578573ffffffffffffffffffffffffffffffffffffffff16600260006001846111229190612509565b815260200190815260200160002060010160009054906101000a900473ffffffffffffffffffffffffffffffffffffffff1673ffffffffffffffffffffffffffffffffffffffff1614156111805760018361117d9190612509565b92505b808061118b9061260f565b9150506110f2565b5060008267ffffffffffffffff8111156111d6577f4e487b7100000000000000000000000000000000000000000000000000000000600052604160045260246000fd5b60405190808252806020026020018201604052801561120f57816020015b6111fc611a0c565b8152602001906001900390816111f45790505b50905060005b848110156116fd578673ffffffffffffffffffffffffffffffffffffffff16600260006001846112459190612509565b815260200190815260200160002060010160009054906101000a900473ffffffffffffffffffffffffffffffffffffffff1673ffffffffffffffffffffffffffffffffffffffff1614156116ea5760006001826112a29190612509565b905060006002600083815260200190815260200160002090508060405180610100016040529081600082015481526020016001820160009054906101000a900473ffffffffffffffffffffffffffffffffffffffff1673ffffffffffffffffffffffffffffffffffffffff1673ffffffffffffffffffffffffffffffffffffffff168152602001600282018054611338906125dd565b80601f0160208091040260200160405190810160405280929190818152602001828054611364906125dd565b80156113b15780601f10611386576101008083540402835291602001916113b1565b820191906000526020600020905b81548152906001019060200180831161139457829003601f168201915b505050505081526020016003820180546113ca906125dd565b80601f01602080910402602001604051908101604052809291908181526020018280546113f6906125dd565b80156114435780601f1061141857610100808354040283529160200191611443565b820191906000526020600020905b81548152906001019060200180831161142657829003601f168201915b5050505050815260200160048201805461145c906125dd565b80601f0160208091040260200160405190810160405280929190818152602001828054611488906125dd565b80156114d55780601f106114aa576101008083540402835291602001916114d5565b820191906000526020600020905b8154815290600101906020018083116114b857829003601f168201915b505050505081526020016005820180546114ee906125dd565b80601f016020809104026020016040519081016040528092919081815260200182805461151a906125dd565b80156115675780601f1061153c57610100808354040283529160200191611567565b820191906000526020600020905b81548152906001019060200180831161154a57829003601f168201915b50505050508152602001600682018054611580906125dd565b80601f01602080910402602001604051908101604052809291908181526020018280546115ac906125dd565b80156115f95780601f106115ce576101008083540402835291602001916115f9565b820191906000526020600020905b8154815290600101906020018083116115dc57829003601f168201915b50505050508152602001600782018054611612906125dd565b80601f016020809104026020016040519081016040528092919081815260200182805461163e906125dd565b801561168b5780601f106116605761010080835404028352916020019161168b565b820191906000526020600020905b81548152906001019060200180831161166e57829003601f168201915b5050505050815250508486815181106116cd577f4e487b7100000000000000000000000000000000000000000000000000000000600052603260045260246000fd5b60200260200101819052506001856116e59190612509565b945050505b80806116f59061260f565b915050611215565b5080945050505050919050565b600080606080606080600460008154809291906117269061260f565b91905055506000600454905060006002600083815260200190815260200160002090508181600001819055508e8160010160006101000a81548173ffffffffffffffffffffffffffffffffffffffff021916908373ffffffffffffffffffffffffffffffffffffffff1602179055508d8160020190805190602001906117ad929190611a67565b508c8160030190805190602001906117c6929190611a67565b508b8160040190805190602001906117df929190611a67565b508a8160050190805190602001906117f8929190611a67565b5089816006019080519060200190611811929190611a67565b508881600701908051906020019061182a929190611a67565b508a60405161183991906121e3565b60405180910390208f73ffffffffffffffffffffffffffffffffffffffff16837f72e070645b8753b7561512bdcd5680da44ba132de789fec82d235d43ec008d9b60405160405180910390a4818f8c8f8f8f97509750975097509750975050509750975097509750975097915050565b60045481565b60015481565b600034116118f8576040517f08c379a00000000000000000000000000000000000000000000000000000000081526004016118ef9061225e565b60405180910390fd5b6005600081548092919061190b9061260f565b9190505550600060055490506000600360008381526020019081526020016000209050818160000181905550338160010160006101000a81548173ffffffffffffffffffffffffffffffffffffffff021916908373ffffffffffffffffffffffffffffffffffffffff1602179055503481600201819055503373ffffffffffffffffffffffffffffffffffffffff167f264f630d9efa0d07053a31163641d9fcc0adafc9d9e76f1c37c2ce3a558d2c52346040516119c991906122be565b60405180910390a25050565b604051806060016040528060008152602001600073ffffffffffffffffffffffffffffffffffffffff168152602001600081525090565b60405180610100016040528060008152602001600073ffffffffffffffffffffffffffffffffffffffff1681526020016060815260200160608152602001606081526020016060815260200160608152602001606081525090565b828054611a73906125dd565b90600052602060002090601f016020900481019282611a955760008555611adc565b82601f10611aae57805160ff1916838001178555611adc565b82800160010185558215611adc579182015b82811115611adb578251825591602001919060010190611ac0565b5b509050611ae99190611aed565b5090565b5b80821115611b06576000816000905550600101611aee565b5090565b6000611b1d611b188461242f565b6123fe565b905082815260208101848484011115611b3557600080fd5b611b4084828561259b565b509392505050565b600081359050611b57816126f6565b92915050565b600082601f830112611b6e57600080fd5b8135611b7e848260208601611b0a565b91505092915050565b600081359050611b968161270d565b92915050565b600060208284031215611bae57600080fd5b6000611bbc84828501611b48565b91505092915050565b600080600080600080600060e0888a031215611be057600080fd5b6000611bee8a828b01611b48565b975050602088013567ffffffffffffffff811115611c0b57600080fd5b611c178a828b01611b5d565b965050604088013567ffffffffffffffff811115611c3457600080fd5b611c408a828b01611b5d565b955050606088013567ffffffffffffffff811115611c5d57600080fd5b611c698a828b01611b5d565b945050608088013567ffffffffffffffff811115611c8657600080fd5b611c928a828b01611b5d565b93505060a088013567ffffffffffffffff811115611caf57600080fd5b611cbb8a828b01611b5d565b92505060c088013567ffffffffffffffff811115611cd857600080fd5b611ce48a828b01611b5d565b91505092959891949750929550565b600060208284031215611d0557600080fd5b6000611d1384828501611b87565b91505092915050565b60008060408385031215611d2f57600080fd5b6000611d3d85828601611b87565b9250506020611d4e85828601611b48565b9150509250929050565b6000611d6483836120b0565b60608301905092915050565b6000611d7c83836120f2565b905092915050565b611d8d8161255f565b82525050565b611d9c8161255f565b82525050565b6000611dad8261247f565b611db781856124ba565b9350611dc28361245f565b8060005b83811015611df3578151611dda8882611d58565b9750611de5836124a0565b925050600181019050611dc6565b5085935050505092915050565b6000611e0b8261248a565b611e1581856124cb565b935083602082028501611e278561246f565b8060005b85811015611e635784840389528151611e448582611d70565b9450611e4f836124ad565b925060208a01995050600181019050611e2b565b50829750879550505050505092915050565b6000611e8082612495565b611e8a81856124dc565b9350611e9a8185602086016125aa565b611ea3816126e5565b840191505092915050565b6000611eb982612495565b611ec381856124ed565b9350611ed38185602086016125aa565b611edc816126e5565b840191505092915050565b6000611ef282612495565b611efc81856124fe565b9350611f0c8185602086016125aa565b80840191505092915050565b6000611f25602d836124ed565b91507f4f6e6c7920636f6e7472616374206f776e65722063616e20757064617465206c60008301527f697374696e672070726963652e000000000000000000000000000000000000006020830152604082019050919050565b6000611f8b6026836124ed565b91507f446f6e6174696f6e20616d6f756e74206d75737420626520677265617465722060008301527f7468616e203000000000000000000000000000000000000000000000000000006020830152604082019050919050565b6000611ff16037836124ed565b91507f6f6e6c79206f776e6572206f662074686520636f6e74726163742063616e206360008301527f68616e676520746865206c697374696e672070726963650000000000000000006020830152604082019050919050565b60006120576025836124ed565b91507f4e6f20646f6e6174696f6e7320617661696c61626c6520666f7220776974686460008301527f726177616c0000000000000000000000000000000000000000000000000000006020830152604082019050919050565b6060820160008201516120c660008501826121c5565b5060208201516120d96020850182611d84565b5060408201516120ec60408501826121c5565b50505050565b60006101008301600083015161210b60008601826121c5565b50602083015161211e6020860182611d84565b50604083015184820360408601526121368282611e75565b915050606083015184820360608601526121508282611e75565b9150506080830151848203608086015261216a8282611e75565b91505060a083015184820360a08601526121848282611e75565b91505060c083015184820360c086015261219e8282611e75565b91505060e083015184820360e08601526121b88282611e75565b9150508091505092915050565b6121ce81612591565b82525050565b6121dd81612591565b82525050565b60006121ef8284611ee7565b915081905092915050565b600060208201905081810360008301526122148184611da2565b905092915050565b600060208201905081810360008301526122368184611e00565b905092915050565b6000602082019050818103600083015261225781611f18565b9050919050565b6000602082019050818103600083015261227781611f7e565b9050919050565b6000602082019050818103600083015261229781611fe4565b9050919050565b600060208201905081810360008301526122b78161204a565b9050919050565b60006020820190506122d360008301846121d4565b92915050565b600060c0820190506122ee60008301896121d4565b6122fb6020830188611d93565b818103604083015261230d8187611eae565b905081810360608301526123218186611eae565b905081810360808301526123358185611eae565b905081810360a08301526123498184611eae565b9050979650505050505050565b60006101008201905061236c600083018b6121d4565b612379602083018a611d93565b818103604083015261238b8189611eae565b9050818103606083015261239f8188611eae565b905081810360808301526123b38187611eae565b905081810360a08301526123c78186611eae565b905081810360c08301526123db8185611eae565b905081810360e08301526123ef8184611eae565b90509998505050505050505050565b6000604051905081810181811067ffffffffffffffff82111715612425576124246126b6565b5b8060405250919050565b600067ffffffffffffffff82111561244a576124496126b6565b5b601f19601f8301169050602081019050919050565b6000819050602082019050919050565b6000819050602082019050919050565b600081519050919050565b600081519050919050565b600081519050919050565b6000602082019050919050565b6000602082019050919050565b600082825260208201905092915050565b600082825260208201905092915050565b600082825260208201905092915050565b600082825260208201905092915050565b600081905092915050565b600061251482612591565b915061251f83612591565b9250827fffffffffffffffffffffffffffffffffffffffffffffffffffffffffffffffff0382111561255457612553612658565b5b828201905092915050565b600061256a82612571565b9050919050565b600073ffffffffffffffffffffffffffffffffffffffff82169050919050565b6000819050919050565b82818337600083830152505050565b60005b838110156125c85780820151818401526020810190506125ad565b838111156125d7576000848401525b50505050565b600060028204905060018216806125f557607f821691505b6020821081141561260957612608612687565b5b50919050565b600061261a82612591565b91507fffffffffffffffffffffffffffffffffffffffffffffffffffffffffffffffff82141561264d5761264c612658565b5b600182019050919050565b7f4e487b7100000000000000000000000000000000000000000000000000000000600052601160045260246000fd5b7f4e487b7100000000000000000000000000000000000000000000000000000000600052602260045260246000fd5b7f4e487b7100000000000000000000000000000000000000000000000000000000600052604160045260246000fd5b6000601f19601f8301169050919050565b6126ff8161255f565b811461270a57600080fd5b50565b61271681612591565b811461272157600080fd5b5056fea26469706673582212202468805ab9cd5602f4f63685fffea0db810c80f2e6d817a95de13be66776371e64736f6c63430008000033",
  "linkReferences": {},
  "deployedLinkReferences": {}
}